{
  "contractName": "GameVault",
  "abi": [
    {
      "inputs": [],
      "name": "withdraw",
      "outputs": [],
      "stateMutability": "nonpayable",
      "type": "function"
    },
    {
      "inputs": [
        {
          "internalType": "address",
          "name": "_player",
          "type": "address"
        }
      ],
      "name": "getBalance",
      "outputs": [
        {
          "internalType": "uint256",
          "name": "",
          "type": "uint256"
        }
      ],
      "stateMutability": "view",
      "type": "function"
    }
  ],
  "bytecode": "0x608060405234801561001057600080fd5b50610292806100206000396000f3fe608060405234801561001057600080fd5b50600436106100365760003560e01c80633ccfd60b1461003b578063f8b2cb4f14610045575b600080fd5b610043610075565b005b61005f600480360381019061005a91906101fb565b610150565b60405161006c9190610241565b60405180910390f35b60008060003373ffffffffffffffffffffffffffffffffffffffff1673ffffffffffffffffffffffffffffffffffffffff168152602001908152602001600020549050600081111561014d5760008060003373ffffffffffffffffffffffffffffffffffffffff1673ffffffffffffffffffffffffffffffffffffffff168152602001908152602001600020819055503373ffffffffffffffffffffffffffffffffffffffff166108fc829081150290604051600060405180830381858888f1935050505015801561014b573d6000803e3d6000fd5b505b50565b60008060008373ffffffffffffffffffffffffffffffffffffffff1673ffffffffffffffffffffffffffffffffffffffff168152602001908152602001600020549050919050565b600080fd5b600073ffffffffffffffffffffffffffffffffffffffff82169050919050565b60006101c88261019d565b9050919050565b6101d8816101bd565b81146101e357600080fd5b50565b6000813590506101f5816101cf565b92915050565b60006020828403121561021157610210610198565b5b600061021f848285016101e6565b91505092915050565b6000819050919050565b61023b81610228565b82525050565b60006020820190506102566000830184610232565b9291505056fea26469706673582212202ec9f95a671019960a2c90f6ded97bf1e443e613f0f15c6fc0f58e82536e2c7564736f6c634300080d0033",
  "immutableReferences": {},
  "source": "// SPDX-License-Identifier: MIT\r\npragma solidity >=0.4.22 <0.9.0;\r\n\r\ncontract GameVault {\r\n    // player's rewards are kept here until withdrawn\r\n    mapping(address => uint256) balances;  \r\n\r\n    // this function is used to withraw funds players\r\n    // have accumulated as rewards from winning games\r\n    function withdraw() external {\r\n        uint256 amount = balances[msg.sender];\r\n\r\n        if (amount > 0) {\r\n            balances[msg.sender] = 0;\r\n            payable(msg.sender).transfer(amount);\r\n        }\r\n    }\r\n\r\n    function getBalance(address _player) external view returns (uint256) {\r\n        return balances[_player];\r\n    }\r\n}",
  "sourcePath": "C:\\repos\\rock-paper-scissors-solidity\\contracts\\GameVault.sol",
  "compiler": {
    "name": "solc",
    "version": "0.8.13+commit.abaa5c0e.Emscripten.clang"
  },
  "schemaVersion": "3.4.7",
  "updatedAt": "2022-04-28T09:55:12.115Z",
  "devdoc": {
    "kind": "dev",
    "methods": {},
    "version": 1
  },
  "userdoc": {
    "kind": "user",
    "methods": {},
    "version": 1
  }
}