{
  "contractName": "RockPaperScissors",
  "abi": [
    {
      "inputs": [
        {
          "internalType": "uint256",
          "name": "_entryFee",
          "type": "uint256"
        }
      ],
      "stateMutability": "nonpayable",
      "type": "constructor"
    },
    {
      "anonymous": false,
      "inputs": [
        {
          "indexed": false,
          "internalType": "uint256",
          "name": "gameId",
          "type": "uint256"
        }
      ],
      "name": "GameEnded",
      "type": "event"
    },
    {
      "anonymous": false,
      "inputs": [
        {
          "indexed": false,
          "internalType": "uint256",
          "name": "gameId",
          "type": "uint256"
        }
      ],
      "name": "GameExpired",
      "type": "event"
    },
    {
      "anonymous": false,
      "inputs": [
        {
          "indexed": false,
          "internalType": "uint256",
          "name": "gameId",
          "type": "uint256"
        },
        {
          "indexed": false,
          "internalType": "address",
          "name": "createdBy",
          "type": "address"
        }
      ],
      "name": "NewGame",
      "type": "event"
    },
    {
      "anonymous": false,
      "inputs": [
        {
          "indexed": false,
          "internalType": "uint256",
          "name": "gameId",
          "type": "uint256"
        }
      ],
      "name": "SecondPlayerFound",
      "type": "event"
    },
    {
      "stateMutability": "nonpayable",
      "type": "fallback"
    },
    {
      "inputs": [
        {
          "internalType": "enum RockPaperScissorsGameRules.Choice",
          "name": "_player1Choice",
          "type": "uint8"
        },
        {
          "internalType": "enum RockPaperScissorsGameRules.Choice",
          "name": "_player2Choice",
          "type": "uint8"
        }
      ],
      "name": "confront",
      "outputs": [
        {
          "internalType": "enum RockPaperScissorsGameRules.Outcome",
          "name": "",
          "type": "uint8"
        }
      ],
      "stateMutability": "view",
      "type": "function"
    },
    {
      "inputs": [
        {
          "internalType": "bytes32",
          "name": "_secretChoice",
          "type": "bytes32"
        },
        {
          "internalType": "bytes32",
          "name": "_secret",
          "type": "bytes32"
        }
      ],
      "name": "decodeSecretChoice",
      "outputs": [
        {
          "internalType": "enum RockPaperScissorsGameRules.Choice",
          "name": "choice",
          "type": "uint8"
        },
        {
          "internalType": "bool",
          "name": "isValid",
          "type": "bool"
        }
      ],
      "stateMutability": "pure",
      "type": "function"
    },
    {
      "inputs": [],
      "name": "entryFee",
      "outputs": [
        {
          "internalType": "uint256",
          "name": "",
          "type": "uint256"
        }
      ],
      "stateMutability": "view",
      "type": "function"
    },
    {
      "inputs": [
        {
          "internalType": "uint256",
          "name": "",
          "type": "uint256"
        }
      ],
      "name": "games",
      "outputs": [
        {
          "internalType": "uint256",
          "name": "id",
          "type": "uint256"
        },
        {
          "internalType": "address",
          "name": "player1",
          "type": "address"
        },
        {
          "internalType": "bytes32",
          "name": "player1SecretChoice",
          "type": "bytes32"
        },
        {
          "internalType": "enum RockPaperScissorsGameRules.Choice",
          "name": "player1RevealedChoice",
          "type": "uint8"
        },
        {
          "internalType": "address",
          "name": "player2",
          "type": "address"
        },
        {
          "internalType": "enum RockPaperScissorsGameRules.Choice",
          "name": "player2Choice",
          "type": "uint8"
        },
        {
          "internalType": "uint256",
          "name": "pot",
          "type": "uint256"
        },
        {
          "internalType": "uint256",
          "name": "startTime",
          "type": "uint256"
        },
        {
          "internalType": "bool",
          "name": "resolved",
          "type": "bool"
        },
        {
          "internalType": "bool",
          "name": "expired",
          "type": "bool"
        },
        {
          "internalType": "address",
          "name": "winner",
          "type": "address"
        }
      ],
      "stateMutability": "view",
      "type": "function"
    },
    {
      "inputs": [
        {
          "internalType": "address",
          "name": "_player",
          "type": "address"
        }
      ],
      "name": "getBalance",
      "outputs": [
        {
          "internalType": "uint256",
          "name": "",
          "type": "uint256"
        }
      ],
      "stateMutability": "view",
      "type": "function"
    },
    {
      "inputs": [],
      "name": "owner",
      "outputs": [
        {
          "internalType": "address",
          "name": "",
          "type": "address"
        }
      ],
      "stateMutability": "view",
      "type": "function"
    },
    {
      "inputs": [],
      "name": "undistributedFunds",
      "outputs": [
        {
          "internalType": "uint256",
          "name": "",
          "type": "uint256"
        }
      ],
      "stateMutability": "view",
      "type": "function"
    },
    {
      "inputs": [],
      "name": "withdraw",
      "outputs": [],
      "stateMutability": "nonpayable",
      "type": "function"
    },
    {
      "inputs": [
        {
          "internalType": "uint256",
          "name": "_newFee",
          "type": "uint256"
        }
      ],
      "name": "changeEntryFee",
      "outputs": [],
      "stateMutability": "nonpayable",
      "type": "function"
    },
    {
      "inputs": [
        {
          "internalType": "bytes32",
          "name": "_secretChoice",
          "type": "bytes32"
        }
      ],
      "name": "startNewGame",
      "outputs": [],
      "stateMutability": "payable",
      "type": "function"
    },
    {
      "inputs": [
        {
          "internalType": "uint256",
          "name": "_gameId",
          "type": "uint256"
        },
        {
          "internalType": "enum RockPaperScissorsGameRules.Choice",
          "name": "_choice",
          "type": "uint8"
        }
      ],
      "name": "play",
      "outputs": [],
      "stateMutability": "payable",
      "type": "function"
    },
    {
      "inputs": [
        {
          "internalType": "uint256",
          "name": "_gameId",
          "type": "uint256"
        },
        {
          "internalType": "bytes32",
          "name": "_secret",
          "type": "bytes32"
        }
      ],
      "name": "resolve",
      "outputs": [],
      "stateMutability": "nonpayable",
      "type": "function"
    },
    {
      "inputs": [
        {
          "internalType": "uint256",
          "name": "_gameId",
          "type": "uint256"
        }
      ],
      "name": "resolveExpiredGame",
      "outputs": [],
      "stateMutability": "nonpayable",
      "type": "function"
    },
    {
      "inputs": [],
      "name": "myGames",
      "outputs": [
        {
          "components": [
            {
              "internalType": "uint256",
              "name": "id",
              "type": "uint256"
            },
            {
              "internalType": "address",
              "name": "player1",
              "type": "address"
            },
            {
              "internalType": "bytes32",
              "name": "player1SecretChoice",
              "type": "bytes32"
            },
            {
              "internalType": "enum RockPaperScissorsGameRules.Choice",
              "name": "player1RevealedChoice",
              "type": "uint8"
            },
            {
              "internalType": "address",
              "name": "player2",
              "type": "address"
            },
            {
              "internalType": "enum RockPaperScissorsGameRules.Choice",
              "name": "player2Choice",
              "type": "uint8"
            },
            {
              "internalType": "uint256",
              "name": "pot",
              "type": "uint256"
            },
            {
              "internalType": "uint256",
              "name": "startTime",
              "type": "uint256"
            },
            {
              "internalType": "bool",
              "name": "resolved",
              "type": "bool"
            },
            {
              "internalType": "bool",
              "name": "expired",
              "type": "bool"
            },
            {
              "internalType": "address",
              "name": "winner",
              "type": "address"
            }
          ],
          "internalType": "struct RockPaperScissors.Game[]",
          "name": "",
          "type": "tuple[]"
        }
      ],
      "stateMutability": "view",
      "type": "function"
    },
    {
      "inputs": [],
      "name": "getActiveGameIds",
      "outputs": [
        {
          "internalType": "uint256[]",
          "name": "",
          "type": "uint256[]"
        }
      ],
      "stateMutability": "view",
      "type": "function"
    }
  ],
  "bytecode": "0x60806040523480156200001157600080fd5b50604051620033dc380380620033dc8339818101604052810190620000379190620001ff565b600260008080600281111562000052576200005162000231565b5b600281111562000067576200006662000231565b5b815260200190815260200160002060006101000a81548160ff021916908360028111156200009a576200009962000231565b5b0217905550600080600060016002811115620000bb57620000ba62000231565b5b6002811115620000d057620000cf62000231565b5b815260200190815260200160002060006101000a81548160ff0219169083600281111562000103576200010262000231565b5b0217905550600160008060028081111562000123576200012262000231565b5b600281111562000138576200013762000231565b5b815260200190815260200160002060006101000a81548160ff021916908360028111156200016b576200016a62000231565b5b02179055508060038190555033600260006101000a81548173ffffffffffffffffffffffffffffffffffffffff021916908373ffffffffffffffffffffffffffffffffffffffff1602179055505062000260565b600080fd5b6000819050919050565b620001d981620001c4565b8114620001e557600080fd5b50565b600081519050620001f981620001ce565b92915050565b600060208284031215620002185762000217620001bf565b5b60006200022884828501620001e8565b91505092915050565b7f4e487b7100000000000000000000000000000000000000000000000000000000600052602160045260246000fd5b61316c80620002706000396000f3fe6080604052600436106100ec5760003560e01c80636916c9b01161008a578063f2ac4b1111610059578063f2ac4b11146102f0578063f7d978a214610319578063f8b2cb4f14610342578063ff5e21861461037f576100ed565b80636916c9b0146102465780638da5cb5b14610271578063c54b274f1461029c578063d2da33cf146102c5576100ed565b80633a53dfd1116100c65780633a53dfd1146101aa5780633ccfd60b146101e85780634da538a9146101ff5780635cd7692e1461022a576100ed565b8063072ea61c146100fb578063117a5b90146101265780631ef80bdd1461016d576100ed565b5b3480156100f957600080fd5b005b34801561010757600080fd5b5061011061039b565b60405161011d919061202e565b60405180910390f35b34801561013257600080fd5b5061014d6004803603810190610148919061207a565b6103a1565b6040516101649b9a99989796959493929190612193565b60405180910390f35b34801561017957600080fd5b50610194600480360381019061018f9190612263565b61049f565b6040516101a191906122eb565b60405180910390f35b3480156101b657600080fd5b506101d160048036038101906101cc9190612332565b610557565b6040516101df929190612372565b60405180910390f35b3480156101f457600080fd5b506101fd610617565b005b34801561020b57600080fd5b506102146106f4565b604051610221919061202e565b60405180910390f35b610244600480360381019061023f919061239b565b6106fa565b005b34801561025257600080fd5b5061025b610a05565b6040516102689190612499565b60405180910390f35b34801561027d57600080fd5b50610286610a5d565b60405161029391906124bb565b60405180910390f35b3480156102a857600080fd5b506102c360048036038101906102be919061207a565b610a83565b005b3480156102d157600080fd5b506102da610c31565b6040516102e791906126a3565b60405180910390f35b3480156102fc57600080fd5b50610317600480360381019061031291906126c5565b610ea4565b005b34801561032557600080fd5b50610340600480360381019061033b919061207a565b61114a565b005b34801561034e57600080fd5b5061036960048036038101906103649190612731565b6111e4565b604051610376919061202e565b60405180910390f35b6103996004803603810190610394919061275e565b61122d565b005b60035481565b600481815481106103b157600080fd5b90600052602060002090600702016000915090508060000154908060010160009054906101000a900473ffffffffffffffffffffffffffffffffffffffff16908060020154908060030160009054906101000a900460ff16908060030160019054906101000a900473ffffffffffffffffffffffffffffffffffffffff16908060030160159054906101000a900460ff16908060040154908060050154908060060160009054906101000a900460ff16908060060160019054906101000a900460ff16908060060160029054906101000a900473ffffffffffffffffffffffffffffffffffffffff1690508b565b60008160028111156104b4576104b3612101565b5b8360028111156104c7576104c6612101565b5b036104d55760029050610551565b8160028111156104e8576104e7612101565b5b6000808560028111156104fe576104fd612101565b5b60028111156105105761050f612101565b5b815260200190815260200160002060009054906101000a900460ff16600281111561053e5761053d612101565b5b0361054c5760009050610551565b600190505b92915050565b60008060019050836000846040516020016105739291906127e2565b60405160208183030381529060405280519060200120036105975760009150610610565b836001846040516020016105ac9291906127e2565b60405160208183030381529060405280519060200120036105d0576001915061060f565b836002846040516020016105e59291906127e2565b6040516020818303038152906040528051906020012003610609576002915061060e565b600090505b5b5b9250929050565b6000600160003373ffffffffffffffffffffffffffffffffffffffff1673ffffffffffffffffffffffffffffffffffffffff16815260200190815260200160002054905060008111156106f1576000600160003373ffffffffffffffffffffffffffffffffffffffff1673ffffffffffffffffffffffffffffffffffffffff168152602001908152602001600020819055503373ffffffffffffffffffffffffffffffffffffffff166108fc829081150290604051600060405180830381858888f193505050501580156106ef573d6000803e3d6000fd5b505b50565b60065481565b600354341461070a600354611783565b60405160200161071a9190612920565b6040516020818303038152906040529061076a576040517f08c379a000000000000000000000000000000000000000000000000000000000815260040161076191906129a8565b60405180910390fd5b5081806004805490501161077d82611783565b60405160200161078d9190612a16565b604051602081830303815290604052906107dd576040517f08c379a00000000000000000000000000000000000000000000000000000000081526004016107d491906129a8565b60405180910390fd5b506000600484815481106107f4576107f3612a38565b5b906000526020600020906007020190508060060160009054906101000a900460ff1615610856576040517f08c379a000000000000000000000000000000000000000000000000000000000815260040161084d90612ab3565b60405180910390fd5b6108676202a30082600501546118e3565b156108a7576040517f08c379a000000000000000000000000000000000000000000000000000000000815260040161089e90612b6b565b60405180910390fd5b600073ffffffffffffffffffffffffffffffffffffffff168160030160019054906101000a900473ffffffffffffffffffffffffffffffffffffffff1673ffffffffffffffffffffffffffffffffffffffff161461093a576040517f08c379a000000000000000000000000000000000000000000000000000000000815260040161093190612bfd565b60405180910390fd5b338160030160016101000a81548173ffffffffffffffffffffffffffffffffffffffff021916908373ffffffffffffffffffffffffffffffffffffffff160217905550828160030160156101000a81548160ff021916908360028111156109a4576109a3612101565b5b0217905550348160040160008282546109bd9190612c4c565b925050819055507f41ae524d5a48e988204a8a7bfc0baa36fbb6e1ad05767fced184b54a8f0c81b781600001546040516109f7919061202e565b60405180910390a150505050565b60606005805480602002602001604051908101604052809291908181526020018280548015610a5357602002820191906000526020600020905b815481526020019060010190808311610a3f575b5050505050905090565b600260009054906101000a900473ffffffffffffffffffffffffffffffffffffffff1681565b808060048054905011610a9582611783565b604051602001610aa59190612a16565b60405160208183030381529060405290610af5576040517f08c379a0000000000000000000000000000000000000000000000000000000008152600401610aec91906129a8565b60405180910390fd5b50600060048381548110610b0c57610b0b612a38565b5b906000526020600020906007020190503373ffffffffffffffffffffffffffffffffffffffff168160030160019054906101000a900473ffffffffffffffffffffffffffffffffffffffff1673ffffffffffffffffffffffffffffffffffffffff1614610bae576040517f08c379a0000000000000000000000000000000000000000000000000000000008152600401610ba590612d14565b60405180910390fd5b610bbf6203f48082600501546118e3565b610bfe576040517f08c379a0000000000000000000000000000000000000000000000000000000008152600401610bf590612da6565b60405180910390fd5b610c2c818260030160019054906101000a900473ffffffffffffffffffffffffffffffffffffffff166118fc565b505050565b6060600760003373ffffffffffffffffffffffffffffffffffffffff1673ffffffffffffffffffffffffffffffffffffffff168152602001908152602001600020805480602002602001604051908101604052809291908181526020016000905b82821015610e9b578382906000526020600020906007020160405180610160016040529081600082015481526020016001820160009054906101000a900473ffffffffffffffffffffffffffffffffffffffff1673ffffffffffffffffffffffffffffffffffffffff1673ffffffffffffffffffffffffffffffffffffffff168152602001600282015481526020016003820160009054906101000a900460ff166002811115610d4557610d44612101565b5b6002811115610d5757610d56612101565b5b81526020016003820160019054906101000a900473ffffffffffffffffffffffffffffffffffffffff1673ffffffffffffffffffffffffffffffffffffffff1673ffffffffffffffffffffffffffffffffffffffff1681526020016003820160159054906101000a900460ff166002811115610dd657610dd5612101565b5b6002811115610de857610de7612101565b5b815260200160048201548152602001600582015481526020016006820160009054906101000a900460ff161515151581526020016006820160019054906101000a900460ff161515151581526020016006820160029054906101000a900473ffffffffffffffffffffffffffffffffffffffff1673ffffffffffffffffffffffffffffffffffffffff1673ffffffffffffffffffffffffffffffffffffffff168152505081526020019060010190610c92565b50505050905090565b818060048054905011610eb682611783565b604051602001610ec69190612a16565b60405160208183030381529060405290610f16576040517f08c379a0000000000000000000000000000000000000000000000000000000008152600401610f0d91906129a8565b60405180910390fd5b50600060048481548110610f2d57610f2c612a38565b5b906000526020600020906007020190508060060160009054906101000a900460ff1615610f8f576040517f08c379a0000000000000000000000000000000000000000000000000000000008152600401610f8690612ab3565b60405180910390fd5b3373ffffffffffffffffffffffffffffffffffffffff168160010160009054906101000a900473ffffffffffffffffffffffffffffffffffffffff1673ffffffffffffffffffffffffffffffffffffffff1614611021576040517f08c379a000000000000000000000000000000000000000000000000000000000815260040161101890612e38565b60405180910390fd5b6110326202a30082600501546118e3565b1561106b57611065818260010160009054906101000a900473ffffffffffffffffffffffffffffffffffffffff166118fc565b50611145565b600073ffffffffffffffffffffffffffffffffffffffff168160030160019054906101000a900473ffffffffffffffffffffffffffffffffffffffff1673ffffffffffffffffffffffffffffffffffffffff16036110fe576040517f08c379a00000000000000000000000000000000000000000000000000000000081526004016110f590612ef0565b60405180910390fd5b61110881846119dc565b7fce24807f7e4b60b4e641462f13029fa5e5f79075bbc3f8e5cd43ecd19661d760816000015460405161113b919061202e565b60405180910390a1505b505050565b600260009054906101000a900473ffffffffffffffffffffffffffffffffffffffff1673ffffffffffffffffffffffffffffffffffffffff163373ffffffffffffffffffffffffffffffffffffffff16146111da576040517f08c379a00000000000000000000000000000000000000000000000000000000081526004016111d190612f82565b60405180910390fd5b8060038190555050565b6000600160008373ffffffffffffffffffffffffffffffffffffffff1673ffffffffffffffffffffffffffffffffffffffff168152602001908152602001600020549050919050565b600354341461123d600354611783565b60405160200161124d9190612920565b6040516020818303038152906040529061129d576040517f08c379a000000000000000000000000000000000000000000000000000000000815260040161129491906129a8565b60405180910390fd5b506112a6611f4e565b60048054905081600001818152505033816020019073ffffffffffffffffffffffffffffffffffffffff16908173ffffffffffffffffffffffffffffffffffffffff1681525050818160400181815250506003548160c0018181525050428160e00181815250506000600654111561133c576006548160c00181815161132c9190612c4c565b9150818152505060006006819055505b60048190806001815401808255809150506001900390600052602060002090600702016000909190919091506000820151816000015560208201518160010160006101000a81548173ffffffffffffffffffffffffffffffffffffffff021916908373ffffffffffffffffffffffffffffffffffffffff1602179055506040820151816002015560608201518160030160006101000a81548160ff021916908360028111156113ee576113ed612101565b5b021790555060808201518160030160016101000a81548173ffffffffffffffffffffffffffffffffffffffff021916908373ffffffffffffffffffffffffffffffffffffffff16021790555060a08201518160030160156101000a81548160ff0219169083600281111561146557611464612101565b5b021790555060c0820151816004015560e082015181600501556101008201518160060160006101000a81548160ff0219169083151502179055506101208201518160060160016101000a81548160ff0219169083151502179055506101408201518160060160026101000a81548173ffffffffffffffffffffffffffffffffffffffff021916908373ffffffffffffffffffffffffffffffffffffffff1602179055505050600760003373ffffffffffffffffffffffffffffffffffffffff1673ffffffffffffffffffffffffffffffffffffffff1681526020019081526020016000208190806001815401808255809150506001900390600052602060002090600702016000909190919091506000820151816000015560208201518160010160006101000a81548173ffffffffffffffffffffffffffffffffffffffff021916908373ffffffffffffffffffffffffffffffffffffffff1602179055506040820151816002015560608201518160030160006101000a81548160ff021916908360028111156115f9576115f8612101565b5b021790555060808201518160030160016101000a81548173ffffffffffffffffffffffffffffffffffffffff021916908373ffffffffffffffffffffffffffffffffffffffff16021790555060a08201518160030160156101000a81548160ff021916908360028111156116705761166f612101565b5b021790555060c0820151816004015560e082015181600501556101008201518160060160006101000a81548160ff0219169083151502179055506101208201518160060160016101000a81548160ff0219169083151502179055506101408201518160060160026101000a81548173ffffffffffffffffffffffffffffffffffffffff021916908373ffffffffffffffffffffffffffffffffffffffff16021790555050506005816000015190806001815401808255809150506001900390600052602060002001600090919091909150557fb4ab36f4d2fee8698466065c4ee831b4748994cdd8de1c10a834a1d9b9452337816000015133604051611777929190612fa2565b60405180910390a15050565b6060600082036117ca576040518060400160405280600181526020017f300000000000000000000000000000000000000000000000000000000000000081525090506118de565b600082905060005b600082146117fc5780806117e590612fcb565b915050600a826117f59190613042565b91506117d2565b60008167ffffffffffffffff81111561181857611817613073565b5b6040519080825280601f01601f19166020018201604052801561184a5781602001600182028036833780820191505090505b5090505b600085146118d75760018261186391906130a2565b9150600a8561187291906130d6565b603061187e9190612c4c565b60f81b81838151811061189457611893612a38565b5b60200101907effffffffffffffffffffffffffffffffffffffffffffffffffffffffffffff1916908160001a905350600a856118d09190613042565b945061184e565b8093505050505b919050565b60004283836118f29190612c4c565b1115905092915050565b60018260060160016101000a81548160ff02191690831515021790555060018260060160006101000a81548160ff0219169083151502179055508160040154600160008373ffffffffffffffffffffffffffffffffffffffff1673ffffffffffffffffffffffffffffffffffffffff16815260200190815260200160002060008282546119899190612c4c565b9250508190555061199d8260000154611b14565b7f22ad069010df790b4189611020dc593978605c76ec2dca82a6c137eebaf0724882600001546040516119d0919061202e565b60405180910390a15050565b60018260060160006101000a81548160ff021916908315150217905550611a068260000154611b14565b600080611a17846002015484610557565b915091508015611a5257818460030160006101000a81548160ff02191690836002811115611a4857611a47612101565b5b0217905550611ad3565b6000808560030160159054906101000a900460ff166002811115611a7957611a78612101565b5b6002811115611a8b57611a8a612101565b5b815260200190815260200160002060009054906101000a900460ff168460030160006101000a81548160ff02191690836002811115611acd57611acc612101565b5b02179055505b6000611b018560030160009054906101000a900460ff168660030160159054906101000a900460ff1661049f565b9050611b0d8582611bdf565b5050505050565b60005b600580549050811015611bdb5760058181548110611b3857611b37612a38565b5b90600052602060002001548203611bc85760056001600580549050611b5d91906130a2565b81548110611b6e57611b6d612a38565b5b906000526020600020015460058281548110611b8d57611b8c612a38565b5b90600052602060002001819055506005805480611bad57611bac613107565b5b60019003818190600052602060002001600090559055611bdb565b8080611bd390612fcb565b915050611b17565b5050565b60006002811115611bf357611bf2612101565b5b816002811115611c0657611c05612101565b5b03611cf5578160010160009054906101000a900473ffffffffffffffffffffffffffffffffffffffff168260060160026101000a81548173ffffffffffffffffffffffffffffffffffffffff021916908373ffffffffffffffffffffffffffffffffffffffff1602179055508160040154600160008460010160009054906101000a900473ffffffffffffffffffffffffffffffffffffffff1673ffffffffffffffffffffffffffffffffffffffff1673ffffffffffffffffffffffffffffffffffffffff1681526020019081526020016000206000828254611ce99190612c4c565b92505081905550611f4a565b60016002811115611d0957611d08612101565b5b816002811115611d1c57611d1b612101565b5b03611e0b578160030160019054906101000a900473ffffffffffffffffffffffffffffffffffffffff168260060160026101000a81548173ffffffffffffffffffffffffffffffffffffffff021916908373ffffffffffffffffffffffffffffffffffffffff1602179055508160040154600160008460030160019054906101000a900473ffffffffffffffffffffffffffffffffffffffff1673ffffffffffffffffffffffffffffffffffffffff1673ffffffffffffffffffffffffffffffffffffffff1681526020019081526020016000206000828254611dff9190612c4c565b92505081905550611f49565b60028260040154611e1c9190613042565b60066000828254611e2d9190612c4c565b9250508190555060048260040154611e459190613042565b600160008460010160009054906101000a900473ffffffffffffffffffffffffffffffffffffffff1673ffffffffffffffffffffffffffffffffffffffff1673ffffffffffffffffffffffffffffffffffffffff1681526020019081526020016000206000828254611eb79190612c4c565b9250508190555060048260040154611ecf9190613042565b600160008460030160019054906101000a900473ffffffffffffffffffffffffffffffffffffffff1673ffffffffffffffffffffffffffffffffffffffff1673ffffffffffffffffffffffffffffffffffffffff1681526020019081526020016000206000828254611f419190612c4c565b925050819055505b5b5050565b60405180610160016040528060008152602001600073ffffffffffffffffffffffffffffffffffffffff1681526020016000801916815260200160006002811115611f9c57611f9b612101565b5b8152602001600073ffffffffffffffffffffffffffffffffffffffff16815260200160006002811115611fd257611fd1612101565b5b81526020016000815260200160008152602001600015158152602001600015158152602001600073ffffffffffffffffffffffffffffffffffffffff1681525090565b6000819050919050565b61202881612015565b82525050565b6000602082019050612043600083018461201f565b92915050565b600080fd5b61205781612015565b811461206257600080fd5b50565b6000813590506120748161204e565b92915050565b6000602082840312156120905761208f612049565b5b600061209e84828501612065565b91505092915050565b600073ffffffffffffffffffffffffffffffffffffffff82169050919050565b60006120d2826120a7565b9050919050565b6120e2816120c7565b82525050565b6000819050919050565b6120fb816120e8565b82525050565b7f4e487b7100000000000000000000000000000000000000000000000000000000600052602160045260246000fd5b6003811061214157612140612101565b5b50565b600081905061215282612130565b919050565b600061216282612144565b9050919050565b61217281612157565b82525050565b60008115159050919050565b61218d81612178565b82525050565b6000610160820190506121a9600083018e61201f565b6121b6602083018d6120d9565b6121c3604083018c6120f2565b6121d0606083018b612169565b6121dd608083018a6120d9565b6121ea60a0830189612169565b6121f760c083018861201f565b61220460e083018761201f565b612212610100830186612184565b612220610120830185612184565b61222e6101408301846120d9565b9c9b505050505050505050505050565b6003811061224b57600080fd5b50565b60008135905061225d8161223e565b92915050565b6000806040838503121561227a57612279612049565b5b60006122888582860161224e565b92505060206122998582860161224e565b9150509250929050565b600381106122b4576122b3612101565b5b50565b60008190506122c5826122a3565b919050565b60006122d5826122b7565b9050919050565b6122e5816122ca565b82525050565b600060208201905061230060008301846122dc565b92915050565b61230f816120e8565b811461231a57600080fd5b50565b60008135905061232c81612306565b92915050565b6000806040838503121561234957612348612049565b5b60006123578582860161231d565b92505060206123688582860161231d565b9150509250929050565b60006040820190506123876000830185612169565b6123946020830184612184565b9392505050565b600080604083850312156123b2576123b1612049565b5b60006123c085828601612065565b92505060206123d18582860161224e565b9150509250929050565b600081519050919050565b600082825260208201905092915050565b6000819050602082019050919050565b61241081612015565b82525050565b60006124228383612407565b60208301905092915050565b6000602082019050919050565b6000612446826123db565b61245081856123e6565b935061245b836123f7565b8060005b8381101561248c5781516124738882612416565b975061247e8361242e565b92505060018101905061245f565b5085935050505092915050565b600060208201905081810360008301526124b3818461243b565b905092915050565b60006020820190506124d060008301846120d9565b92915050565b600081519050919050565b600082825260208201905092915050565b6000819050602082019050919050565b61250b816120c7565b82525050565b61251a816120e8565b82525050565b61252981612157565b82525050565b61253881612178565b82525050565b610160820160008201516125556000850182612407565b5060208201516125686020850182612502565b50604082015161257b6040850182612511565b50606082015161258e6060850182612520565b5060808201516125a16080850182612502565b5060a08201516125b460a0850182612520565b5060c08201516125c760c0850182612407565b5060e08201516125da60e0850182612407565b506101008201516125ef61010085018261252f565b5061012082015161260461012085018261252f565b50610140820151612619610140850182612502565b50505050565b600061262b838361253e565b6101608301905092915050565b6000602082019050919050565b6000612650826124d6565b61265a81856124e1565b9350612665836124f2565b8060005b8381101561269657815161267d888261261f565b975061268883612638565b925050600181019050612669565b5085935050505092915050565b600060208201905081810360008301526126bd8184612645565b905092915050565b600080604083850312156126dc576126db612049565b5b60006126ea85828601612065565b92505060206126fb8582860161231d565b9150509250929050565b61270e816120c7565b811461271957600080fd5b50565b60008135905061272b81612705565b92915050565b60006020828403121561274757612746612049565b5b60006127558482850161271c565b91505092915050565b60006020828403121561277457612773612049565b5b60006127828482850161231d565b91505092915050565b60008160f81b9050919050565b60006127a38261278b565b9050919050565b6127bb6127b682612157565b612798565b82525050565b6000819050919050565b6127dc6127d7826120e8565b6127c1565b82525050565b60006127ee82856127aa565b6001820191506127fe82846127cb565b6020820191508190509392505050565b600081905092915050565b7f456e74727920666565206d75737420626520657175616c20746f200000000000600082015250565b600061284f601b8361280e565b915061285a82612819565b601b82019050919050565b600081519050919050565b60005b8381101561288e578082015181840152602081019050612873565b8381111561289d576000848401525b50505050565b60006128ae82612865565b6128b8818561280e565b93506128c8818560208601612870565b80840191505092915050565b7f2057656900000000000000000000000000000000000000000000000000000000600082015250565b600061290a60048361280e565b9150612915826128d4565b600482019050919050565b600061292b82612842565b915061293782846128a3565b9150612942826128fd565b915081905092915050565b600082825260208201905092915050565b6000601f19601f8301169050919050565b600061297a82612865565b612984818561294d565b9350612994818560208601612870565b61299d8161295e565b840191505092915050565b600060208201905081810360008301526129c2818461296f565b905092915050565b7f436f756c64206e6f742066696e6420612067616d6520776974682069643a2000600082015250565b6000612a00601f8361280e565b9150612a0b826129ca565b601f82019050919050565b6000612a21826129f3565b9150612a2d82846128a3565b915081905092915050565b7f4e487b7100000000000000000000000000000000000000000000000000000000600052603260045260246000fd5b7f47616d652068617320616c7261616479206265656e207265736f6c7665640000600082015250565b6000612a9d601e8361294d565b9150612aa882612a67565b602082019050919050565b60006020820190508181036000830152612acc81612a90565b9050919050565b7f5468652067616d652068617320657870697265642e20343820686f757273206860008201527f617665207061737365642073696e6365207468652067616d652077617320737460208201527f6172746564000000000000000000000000000000000000000000000000000000604082015250565b6000612b5560458361294d565b9150612b6082612ad3565b606082019050919050565b60006020820190508181036000830152612b8481612b48565b9050919050565b7f5468652067616d6520616c7265616479206861732074776f20706c617965727360008201527f2070617274696369706174696e67000000000000000000000000000000000000602082015250565b6000612be7602e8361294d565b9150612bf282612b8b565b604082019050919050565b60006020820190508181036000830152612c1681612bda565b9050919050565b7f4e487b7100000000000000000000000000000000000000000000000000000000600052601160045260246000fd5b6000612c5782612015565b9150612c6283612015565b9250827fffffffffffffffffffffffffffffffffffffffffffffffffffffffffffffffff03821115612c9757612c96612c1d565b5b828201905092915050565b7f4f6e6c79207265676973746572656420706c6179657220322063616e2063616c60008201527f6c20746869732066756e6374696f6e0000000000000000000000000000000000602082015250565b6000612cfe602f8361294d565b9150612d0982612ca2565b604082019050919050565b60006020820190508181036000830152612d2d81612cf1565b9050919050565b7f47616d65206973207374696c6c2077616974696e6720666f7220706c6179657260008201527f203120746f2072657665616c206869732063686f696365000000000000000000602082015250565b6000612d9060378361294d565b9150612d9b82612d34565b604082019050919050565b60006020820190508181036000830152612dbf81612d83565b9050919050565b7f4f6e6c792074686520706c617965722077686f2073746172746564207468652060008201527f67616d652063616e2063616c6c20746869732066756e6374696f6e0000000000602082015250565b6000612e22603b8361294d565b9150612e2d82612dc6565b604082019050919050565b60006020820190508181036000830152612e5181612e15565b9050919050565b7f47616d652063616e6e6f74206265207265736f6c76656420796574207369636e60008201527f636520746865207365636f6e6420706c6179657220776173206e6f7420666f7560208201527f6e6420616e64207468652067616d6520686173206e6f74206578706972656400604082015250565b6000612eda605f8361294d565b9150612ee582612e58565b606082019050919050565b60006020820190508181036000830152612f0981612ecd565b9050919050565b7f4f6e6c792074686520636f6e7472616374206f776e65722063616e206368616760008201527f652074686520656e747279206665650000000000000000000000000000000000602082015250565b6000612f6c602f8361294d565b9150612f7782612f10565b604082019050919050565b60006020820190508181036000830152612f9b81612f5f565b9050919050565b6000604082019050612fb7600083018561201f565b612fc460208301846120d9565b9392505050565b6000612fd682612015565b91507fffffffffffffffffffffffffffffffffffffffffffffffffffffffffffffffff820361300857613007612c1d565b5b600182019050919050565b7f4e487b7100000000000000000000000000000000000000000000000000000000600052601260045260246000fd5b600061304d82612015565b915061305883612015565b92508261306857613067613013565b5b828204905092915050565b7f4e487b7100000000000000000000000000000000000000000000000000000000600052604160045260246000fd5b60006130ad82612015565b91506130b883612015565b9250828210156130cb576130ca612c1d565b5b828203905092915050565b60006130e182612015565b91506130ec83612015565b9250826130fc576130fb613013565b5b828206905092915050565b7f4e487b7100000000000000000000000000000000000000000000000000000000600052603160045260246000fdfea264697066735822122048037acd4d625ab8891f8e76c59cd2b2c67ff809fb65398689a86f01bf19c41364736f6c634300080d0033",
  "immutableReferences": {},
  "source": "// SPDX-License-Identifier: MIT\r\npragma solidity >=0.4.22 <0.9.0;\r\n\r\nimport \"./RockPaperScissorsGame.sol\";\r\nimport \"./GameVault.sol\";\r\nimport \"@openzeppelin/contracts/utils/Strings.sol\";\r\n\r\ncontract RockPaperScissors is RockPaperScissorsGameRules, GameVault {\r\n    struct Game {\r\n        uint256 id;\r\n        address player1;\r\n        bytes32 player1SecretChoice;\r\n        Choice player1RevealedChoice;\r\n        address player2;\r\n        Choice player2Choice;\r\n        uint256 pot;\r\n        uint256 startTime;\r\n        bool resolved;\r\n        bool expired;\r\n        address winner;\r\n    }\r\n\r\n    event NewGame(uint256 gameId, address createdBy);\r\n    event SecondPlayerFound(uint256 gameId);\r\n    event GameExpired(uint256 gameId);\r\n    event GameEnded(uint256 gameId);\r\n\r\n    modifier requireEntryFee() {\r\n        require(\r\n            msg.value == entryFee,\r\n            string(\r\n                abi.encodePacked(\r\n                    \"Entry fee must be equal to \",\r\n                    Strings.toString(entryFee),\r\n                    \" Wei\"\r\n                )\r\n            )\r\n        );\r\n        _;\r\n    }\r\n\r\n    modifier validGameId(uint256 _gameId) {\r\n        require(\r\n            games.length > _gameId,\r\n            string(\r\n                abi.encodePacked(\r\n                    \"Could not find a game with id: \",\r\n                    Strings.toString(_gameId)\r\n                )\r\n            )\r\n        );\r\n        _;\r\n    }\r\n\r\n    address public owner;\r\n    uint256 public entryFee;\r\n    Game[] public games;\r\n    uint256[] activeGameIds;\r\n    // this field is public for purpose to incetivise players to start a new game\r\n    // in case when undistributedFunds > 0\r\n    uint256 public undistributedFunds;\r\n    mapping(address => Game[]) playerGames;\r\n\r\n    constructor(uint256 _entryFee) {\r\n        entryFee = _entryFee;\r\n        owner = msg.sender;\r\n    }\r\n\r\n    function changeEntryFee(uint256 _newFee) external {\r\n        require(\r\n            msg.sender == owner,\r\n            \"Only the contract owner can chage the entry fee\"\r\n        );\r\n\r\n        entryFee = _newFee;\r\n    }\r\n\r\n    // 1. when starting a new game user must provide his secret choice as sha256 encoded value of\r\n    //  the choice he wants to make (Rock, Paper, Scissors) and a secret value\r\n    // 2. this secret value is later going to be used to decode this secert choice and resolve the game\r\n    // 3. (WARNING) THE SAME SECRET SHOULD NOT BE REUSED MULTIPLE TIMES FOR DIFFERENT GAMES\r\n    //  since this can allow malitious user to correctly predict the player's choice based on\r\n    //  secert choices made in previous games this user has played\r\n    function startNewGame(bytes32 _secretChoice)\r\n        external\r\n        payable\r\n        requireEntryFee\r\n    {\r\n        Game memory newGame;\r\n        newGame.id = games.length;\r\n        newGame.player1 = msg.sender;\r\n        newGame.player1SecretChoice = _secretChoice;\r\n        newGame.pot = entryFee;\r\n        newGame.startTime = block.timestamp;\r\n\r\n        // if previos game ended in draw add half of its pot to the pot\r\n        if (undistributedFunds > 0) {\r\n            newGame.pot += undistributedFunds;\r\n            undistributedFunds = 0;\r\n        }\r\n\r\n        games.push(newGame);\r\n        playerGames[msg.sender].push(newGame);\r\n        activeGameIds.push(newGame.id);\r\n\r\n        emit NewGame(newGame.id, msg.sender);\r\n    }\r\n\r\n    // player 2 calls this function to enter a game with provided _gameId\r\n    function play(uint256 _gameId, Choice _choice)\r\n        external\r\n        payable\r\n        requireEntryFee\r\n        validGameId(_gameId)\r\n    {\r\n        Game storage game = games[_gameId];\r\n\r\n        require(!game.resolved, \"Game has alraady been resolved\");\r\n        require(\r\n            !timePreiodExpired(48 hours, game.startTime),\r\n            \"The game has expired. 48 hours have passed since the game was started\"\r\n        );\r\n        require(\r\n            game.player2 == address(0),\r\n            \"The game already has two players participating\"\r\n        );\r\n\r\n        game.player2 = msg.sender;\r\n        game.player2Choice = _choice;\r\n        game.pot += msg.value;\r\n\r\n        emit SecondPlayerFound(game.id);\r\n    }\r\n\r\n    // this function is ment to be called by the player 1 (who created the game)\r\n    // in order to reveal his initial choice and decide the game outcome (resolve)\r\n    function resolve(uint256 _gameId, bytes32 _secret)\r\n        external\r\n        validGameId(_gameId)\r\n    {\r\n        Game storage game = games[_gameId];\r\n\r\n        require(!game.resolved, \"Game has alraady been resolved\");\r\n        require(\r\n            game.player1 == msg.sender,\r\n            \"Only the player who started the game can call this function\"\r\n        );\r\n\r\n        // 48 hours is the time for player 2 to be found\r\n        if (timePreiodExpired(48 hours, game.startTime)) {\r\n            handleGameExpirationInFavourOf(game, game.player1);\r\n\r\n            return;\r\n        }\r\n\r\n        require(\r\n            game.player2 != address(0),\r\n            \"Game cannot be resolved yet sicnce the second player was not found and the game has not expired\"\r\n        );\r\n\r\n        // all conditions for resolving the game have been fulfilled\r\n        resolveGame(game, _secret);\r\n\r\n        emit GameEnded(game.id);\r\n    }\r\n\r\n    // player 2 can call this function in case when player 1 doesn't reveal his\r\n    // secret choice and the 72 hours have passed in total form when the game was started\r\n    function resolveExpiredGame(uint256 _gameId) external validGameId(_gameId) {\r\n        Game storage game = games[_gameId];\r\n\r\n        require(\r\n            game.player2 == msg.sender,\r\n            \"Only registered player 2 can call this function\"\r\n        );\r\n\r\n        // 48 hours is the time for player 2 to be found\r\n        // 24 hours if the time ather that for player 1 to reveal his choice\r\n        require(\r\n            timePreiodExpired(48 hours + 24 hours, game.startTime),\r\n            \"Game is still waiting for player 1 to reveal his choice\"\r\n        );\r\n\r\n        handleGameExpirationInFavourOf(game, game.player2);\r\n    }\r\n\r\n    function myGames() external view returns (Game[] memory) {\r\n        return playerGames[msg.sender];\r\n    }\r\n\r\n    function getActiveGameIds() external view returns (uint256[] memory) {\r\n        return activeGameIds;\r\n    }\r\n\r\n    function removeFromActiveGames(uint256 _gameId) private {\r\n        for (uint256 i = 0; i < activeGameIds.length; i++) {\r\n            if (_gameId != activeGameIds[i]) {\r\n                continue;\r\n            }\r\n\r\n            activeGameIds[i] = activeGameIds[activeGameIds.length - 1];\r\n            activeGameIds.pop();\r\n            break;\r\n        }\r\n    }\r\n\r\n    function resolveGame(Game storage _game, bytes32 _player1Secret) private {\r\n        _game.resolved = true;\r\n        removeFromActiveGames(_game.id);\r\n\r\n        (Choice choice, bool isValid) = decodeSecretChoice(\r\n            _game.player1SecretChoice,\r\n            _player1Secret\r\n        );\r\n        if (isValid) {\r\n            _game.player1RevealedChoice = choice;\r\n        } else {\r\n            // when player 1 makes an invalid choice and the game hasn't expired\r\n            // he is then puhisned by loosing the game forcefully, his choice is set\r\n            // to the loosing one in order to reduce code complexity for handling this case\r\n            _game.player1RevealedChoice = wins[_game.player2Choice];\r\n        }\r\n\r\n        Outcome outcome = confront(\r\n            _game.player1RevealedChoice,\r\n            _game.player2Choice\r\n        );\r\n        handleOutcome(_game, outcome);\r\n    }\r\n\r\n    function handleOutcome(Game storage _game, Outcome _outcome) private {\r\n        if (_outcome == Outcome.Player1Wins) {\r\n            _game.winner = _game.player1;\r\n            balances[_game.player1] += _game.pot;\r\n        } else if (_outcome == Outcome.Player2Wins) {\r\n            _game.winner = _game.player2;\r\n            balances[_game.player2] += _game.pot;\r\n        } else {\r\n            // when a game ends with draw, half of the user's stake\r\n            // is retured, other half is added to the next new game\r\n            undistributedFunds += _game.pot / 2;\r\n            balances[_game.player1] += _game.pot / 4;\r\n            balances[_game.player2] += _game.pot / 4;\r\n        }\r\n    }\r\n\r\n    function handleGameExpirationInFavourOf(\r\n        Game storage _game,\r\n        address _beneficiaryPlayer\r\n    ) private {\r\n        _game.expired = true;\r\n        _game.resolved = true;\r\n        balances[_beneficiaryPlayer] += _game.pot;\r\n        removeFromActiveGames(_game.id);\r\n        emit GameExpired(_game.id);\r\n    }\r\n\r\n    function timePreiodExpired(uint256 _period, uint256 _gameStartTime)\r\n        private\r\n        view\r\n        returns (bool)\r\n    {\r\n        return _gameStartTime + _period <= block.timestamp;\r\n    }\r\n\r\n    fallback() external {}\r\n}\r\n",
  "sourcePath": "C:\\repos\\rock-paper-scissors-solidity\\contracts\\RockPaperScissors.sol",
  "compiler": {
    "name": "solc",
    "version": "0.8.13+commit.abaa5c0e.Emscripten.clang"
  },
  "schemaVersion": "3.4.7",
  "updatedAt": "2022-04-28T09:55:12.132Z",
  "devdoc": {
    "kind": "dev",
    "methods": {},
    "version": 1
  },
  "userdoc": {
    "kind": "user",
    "methods": {},
    "version": 1
  }
}