{
  "contractName": "RockPaperScissorsGameRules",
  "abi": [
    {
      "inputs": [],
      "stateMutability": "nonpayable",
      "type": "constructor"
    },
    {
      "inputs": [
        {
          "internalType": "enum RockPaperScissorsGameRules.Choice",
          "name": "_player1Choice",
          "type": "uint8"
        },
        {
          "internalType": "enum RockPaperScissorsGameRules.Choice",
          "name": "_player2Choice",
          "type": "uint8"
        }
      ],
      "name": "confront",
      "outputs": [
        {
          "internalType": "enum RockPaperScissorsGameRules.Outcome",
          "name": "",
          "type": "uint8"
        }
      ],
      "stateMutability": "view",
      "type": "function"
    },
    {
      "inputs": [
        {
          "internalType": "bytes32",
          "name": "_secretChoice",
          "type": "bytes32"
        },
        {
          "internalType": "bytes32",
          "name": "_secret",
          "type": "bytes32"
        }
      ],
      "name": "decodeSecretChoice",
      "outputs": [
        {
          "internalType": "enum RockPaperScissorsGameRules.Choice",
          "name": "choice",
          "type": "uint8"
        },
        {
          "internalType": "bool",
          "name": "isValid",
          "type": "bool"
        }
      ],
      "stateMutability": "pure",
      "type": "function"
    }
  ],
  "bytecode": "0x608060405234801561001057600080fd5b50600260008080600281111561002957610028610134565b5b600281111561003b5761003a610134565b5b815260200190815260200160002060006101000a81548160ff0219169083600281111561006b5761006a610134565b5b021790555060008060006001600281111561008957610088610134565b5b600281111561009b5761009a610134565b5b815260200190815260200160002060006101000a81548160ff021916908360028111156100cb576100ca610134565b5b021790555060016000806002808111156100e8576100e7610134565b5b60028111156100fa576100f9610134565b5b815260200190815260200160002060006101000a81548160ff0219169083600281111561012a57610129610134565b5b0217905550610163565b7f4e487b7100000000000000000000000000000000000000000000000000000000600052602160045260246000fd5b6104cb806101726000396000f3fe608060405234801561001057600080fd5b50600436106100365760003560e01c80631ef80bdd1461003b5780633a53dfd11461006b575b600080fd5b6100556004803603810190610050919061023e565b61009c565b60405161006291906102f5565b60405180910390f35b61008560048036038101906100809190610346565b610154565b6040516100939291906103e9565b60405180910390f35b60008160028111156100b1576100b061027e565b5b8360028111156100c4576100c361027e565b5b036100d2576002905061014e565b8160028111156100e5576100e461027e565b5b6000808560028111156100fb576100fa61027e565b5b600281111561010d5761010c61027e565b5b815260200190815260200160002060009054906101000a900460ff16600281111561013b5761013a61027e565b5b03610149576000905061014e565b600190505b92915050565b6000806001905083600084604051602001610170929190610469565b6040516020818303038152906040528051906020012003610194576000915061020d565b836001846040516020016101a9929190610469565b60405160208183030381529060405280519060200120036101cd576001915061020c565b836002846040516020016101e2929190610469565b6040516020818303038152906040528051906020012003610206576002915061020b565b600090505b5b5b9250929050565b600080fd5b6003811061022657600080fd5b50565b60008135905061023881610219565b92915050565b6000806040838503121561025557610254610214565b5b600061026385828601610229565b925050602061027485828601610229565b9150509250929050565b7f4e487b7100000000000000000000000000000000000000000000000000000000600052602160045260246000fd5b600381106102be576102bd61027e565b5b50565b60008190506102cf826102ad565b919050565b60006102df826102c1565b9050919050565b6102ef816102d4565b82525050565b600060208201905061030a60008301846102e6565b92915050565b6000819050919050565b61032381610310565b811461032e57600080fd5b50565b6000813590506103408161031a565b92915050565b6000806040838503121561035d5761035c610214565b5b600061036b85828601610331565b925050602061037c85828601610331565b9150509250929050565b600381106103975761039661027e565b5b50565b60008190506103a882610386565b919050565b60006103b88261039a565b9050919050565b6103c8816103ad565b82525050565b60008115159050919050565b6103e3816103ce565b82525050565b60006040820190506103fe60008301856103bf565b61040b60208301846103da565b9392505050565b60008160f81b9050919050565b600061042a82610412565b9050919050565b61044261043d826103ad565b61041f565b82525050565b6000819050919050565b61046361045e82610310565b610448565b82525050565b60006104758285610431565b6001820191506104858284610452565b602082019150819050939250505056fea2646970667358221220b94d958f0bd7b3fe7e1f9328529cda24a8c8c5e0131b7e7f9407831ec6f884c364736f6c634300080d0033",
  "immutableReferences": {},
  "source": "// SPDX-License-Identifier: MIT\r\npragma solidity >=0.4.22 <0.9.0;\r\n\r\ncontract RockPaperScissorsGameRules {\r\n    enum Choice {\r\n        Rock,\r\n        Paper,\r\n        Scissors\r\n    }\r\n\r\n    enum Outcome {\r\n        Player1Wins,\r\n        Player2Wins,\r\n        Draw\r\n    }\r\n\r\n    mapping(Choice => Choice) wins;\r\n\r\n    constructor() {\r\n        wins[Choice.Rock] = Choice.Scissors;\r\n        wins[Choice.Paper] = Choice.Rock;\r\n        wins[Choice.Scissors] = Choice.Paper;\r\n    }\r\n\r\n    function confront(Choice _player1Choice, Choice _player2Choice)\r\n        public\r\n        view\r\n        returns (Outcome)\r\n    {\r\n        if (_player1Choice == _player2Choice) {\r\n            return Outcome.Draw;\r\n        }\r\n\r\n        if (wins[_player1Choice] == _player2Choice) {\r\n            return Outcome.Player1Wins;\r\n        }\r\n\r\n        return Outcome.Player2Wins;\r\n    }\r\n    \r\n    // this function is intended to be used both externally and internally\r\n    // the extteral usage is meant for players to check the validity of their\r\n    // encoded choice against the contracts decoding function, since invalid\r\n    // encoding will lead them to loosing the game\r\n    function decodeSecretChoice(bytes32 _secretChoice, bytes32 _secret)\r\n        public\r\n        pure\r\n        returns (Choice choice, bool isValid)\r\n    {\r\n        isValid = true;\r\n\r\n        if (\r\n            keccak256(abi.encodePacked(Choice.Rock, _secret)) == _secretChoice\r\n        ) {\r\n            choice = Choice.Rock;\r\n        } else if (\r\n            keccak256(abi.encodePacked(Choice.Paper, _secret)) == _secretChoice\r\n        ) {\r\n            choice = Choice.Paper;\r\n        } else if (\r\n            keccak256(abi.encodePacked(Choice.Scissors, _secret)) ==\r\n            _secretChoice\r\n        ) {\r\n            choice = Choice.Scissors;\r\n        } else {\r\n            isValid = false;\r\n        }\r\n    }\r\n}\r\n",
  "sourcePath": "C:\\repos\\rock-paper-scissors-solidity\\contracts\\RockPaperScissorsGame.sol",
  "compiler": {
    "name": "solc",
    "version": "0.8.13+commit.abaa5c0e.Emscripten.clang"
  },
  "schemaVersion": "3.4.7",
  "updatedAt": "2022-04-28T09:55:12.139Z",
  "devdoc": {
    "kind": "dev",
    "methods": {},
    "version": 1
  },
  "userdoc": {
    "kind": "user",
    "methods": {},
    "version": 1
  }
}